{
  "address": "0x6F53399d83516EB08f7a38eAd1ACBA23A46642A5",
  "abi": [
    {
      "inputs": [],
      "name": "ZamaProtocolUnsupported",
      "type": "error"
    },
    {
      "anonymous": false,
      "inputs": [
        {
          "indexed": true,
          "internalType": "address",
          "name": "user",
          "type": "address"
        },
        {
          "indexed": true,
          "internalType": "address",
          "name": "viewer",
          "type": "address"
        }
      ],
      "name": "AccessGranted",
      "type": "event"
    },
    {
      "anonymous": false,
      "inputs": [
        {
          "indexed": true,
          "internalType": "address",
          "name": "user",
          "type": "address"
        },
        {
          "indexed": true,
          "internalType": "address",
          "name": "viewer",
          "type": "address"
        }
      ],
      "name": "AccessRevoked",
      "type": "event"
    },
    {
      "anonymous": false,
      "inputs": [
        {
          "indexed": true,
          "internalType": "address",
          "name": "user",
          "type": "address"
        },
        {
          "indexed": false,
          "internalType": "uint256",
          "name": "timestamp",
          "type": "uint256"
        },
        {
          "indexed": false,
          "internalType": "uint256",
          "name": "recordIndex",
          "type": "uint256"
        }
      ],
      "name": "OfflineRecordAdded",
      "type": "event"
    },
    {
      "inputs": [
        {
          "internalType": "address",
          "name": "",
          "type": "address"
        },
        {
          "internalType": "address",
          "name": "",
          "type": "address"
        }
      ],
      "name": "accessControl",
      "outputs": [
        {
          "internalType": "bool",
          "name": "",
          "type": "bool"
        }
      ],
      "stateMutability": "view",
      "type": "function"
    },
    {
      "inputs": [
        {
          "internalType": "externalEuint32",
          "name": "encryptedMinutes",
          "type": "bytes32"
        },
        {
          "internalType": "bytes",
          "name": "inputProof",
          "type": "bytes"
        }
      ],
      "name": "addOfflineRecord",
      "outputs": [],
      "stateMutability": "nonpayable",
      "type": "function"
    },
    {
      "inputs": [
        {
          "internalType": "address",
          "name": "user",
          "type": "address"
        },
        {
          "internalType": "address",
          "name": "viewer",
          "type": "address"
        }
      ],
      "name": "checkAccessPermission",
      "outputs": [
        {
          "internalType": "bool",
          "name": "",
          "type": "bool"
        }
      ],
      "stateMutability": "view",
      "type": "function"
    },
    {
      "inputs": [
        {
          "internalType": "address",
          "name": "user",
          "type": "address"
        },
        {
          "internalType": "uint256",
          "name": "startTime",
          "type": "uint256"
        },
        {
          "internalType": "uint256",
          "name": "endTime",
          "type": "uint256"
        },
        {
          "internalType": "externalEuint32",
          "name": "targetMinutes",
          "type": "bytes32"
        },
        {
          "internalType": "bytes",
          "name": "targetProof",
          "type": "bytes"
        }
      ],
      "name": "compareEncryptedTotal",
      "outputs": [
        {
          "internalType": "ebool",
          "name": "",
          "type": "bytes32"
        }
      ],
      "stateMutability": "nonpayable",
      "type": "function"
    },
    {
      "inputs": [],
      "name": "confidentialProtocolId",
      "outputs": [
        {
          "internalType": "uint256",
          "name": "",
          "type": "uint256"
        }
      ],
      "stateMutability": "view",
      "type": "function"
    },
    {
      "inputs": [
        {
          "internalType": "address",
          "name": "",
          "type": "address"
        },
        {
          "internalType": "uint256",
          "name": "",
          "type": "uint256"
        }
      ],
      "name": "dailyOfflineRecords",
      "outputs": [
        {
          "internalType": "euint32",
          "name": "encryptedMinutes",
          "type": "bytes32"
        },
        {
          "internalType": "uint256",
          "name": "timestamp",
          "type": "uint256"
        }
      ],
      "stateMutability": "view",
      "type": "function"
    },
    {
      "inputs": [
        {
          "internalType": "address",
          "name": "user",
          "type": "address"
        },
        {
          "internalType": "uint256",
          "name": "startTime",
          "type": "uint256"
        },
        {
          "internalType": "uint256",
          "name": "endTime",
          "type": "uint256"
        }
      ],
      "name": "getEncryptedAverage",
      "outputs": [
        {
          "internalType": "euint32",
          "name": "",
          "type": "bytes32"
        }
      ],
      "stateMutability": "nonpayable",
      "type": "function"
    },
    {
      "inputs": [
        {
          "internalType": "address",
          "name": "user",
          "type": "address"
        }
      ],
      "name": "getEncryptedBestRecord",
      "outputs": [
        {
          "internalType": "euint32",
          "name": "",
          "type": "bytes32"
        }
      ],
      "stateMutability": "nonpayable",
      "type": "function"
    },
    {
      "inputs": [
        {
          "internalType": "address",
          "name": "user",
          "type": "address"
        },
        {
          "internalType": "uint256",
          "name": "startTime",
          "type": "uint256"
        },
        {
          "internalType": "uint256",
          "name": "endTime",
          "type": "uint256"
        }
      ],
      "name": "getEncryptedMax",
      "outputs": [
        {
          "internalType": "euint32",
          "name": "",
          "type": "bytes32"
        }
      ],
      "stateMutability": "nonpayable",
      "type": "function"
    },
    {
      "inputs": [
        {
          "internalType": "address",
          "name": "user",
          "type": "address"
        },
        {
          "internalType": "uint256",
          "name": "startTime",
          "type": "uint256"
        },
        {
          "internalType": "uint256",
          "name": "endTime",
          "type": "uint256"
        }
      ],
      "name": "getEncryptedStats",
      "outputs": [
        {
          "internalType": "euint32",
          "name": "total",
          "type": "bytes32"
        },
        {
          "internalType": "euint32",
          "name": "average",
          "type": "bytes32"
        },
        {
          "internalType": "euint32",
          "name": "max",
          "type": "bytes32"
        },
        {
          "internalType": "euint32",
          "name": "bestRecord",
          "type": "bytes32"
        }
      ],
      "stateMutability": "nonpayable",
      "type": "function"
    },
    {
      "inputs": [
        {
          "internalType": "address",
          "name": "user",
          "type": "address"
        },
        {
          "internalType": "uint256",
          "name": "startTime",
          "type": "uint256"
        },
        {
          "internalType": "uint256",
          "name": "endTime",
          "type": "uint256"
        }
      ],
      "name": "getEncryptedTotal",
      "outputs": [
        {
          "internalType": "euint32",
          "name": "",
          "type": "bytes32"
        }
      ],
      "stateMutability": "nonpayable",
      "type": "function"
    },
    {
      "inputs": [
        {
          "internalType": "address",
          "name": "user",
          "type": "address"
        }
      ],
      "name": "getRecordCount",
      "outputs": [
        {
          "internalType": "uint256",
          "name": "",
          "type": "uint256"
        }
      ],
      "stateMutability": "view",
      "type": "function"
    },
    {
      "inputs": [
        {
          "internalType": "address",
          "name": "user",
          "type": "address"
        },
        {
          "internalType": "uint256",
          "name": "index",
          "type": "uint256"
        }
      ],
      "name": "getRecordTimestamp",
      "outputs": [
        {
          "internalType": "uint256",
          "name": "",
          "type": "uint256"
        }
      ],
      "stateMutability": "view",
      "type": "function"
    },
    {
      "inputs": [
        {
          "internalType": "address",
          "name": "user",
          "type": "address"
        }
      ],
      "name": "getUserInfo",
      "outputs": [
        {
          "internalType": "uint256",
          "name": "recordCount",
          "type": "uint256"
        },
        {
          "internalType": "bool",
          "name": "hasRecords",
          "type": "bool"
        }
      ],
      "stateMutability": "view",
      "type": "function"
    },
    {
      "inputs": [
        {
          "internalType": "address",
          "name": "viewer",
          "type": "address"
        }
      ],
      "name": "grantAccess",
      "outputs": [],
      "stateMutability": "nonpayable",
      "type": "function"
    },
    {
      "inputs": [
        {
          "internalType": "address",
          "name": "viewer",
          "type": "address"
        }
      ],
      "name": "revokeAccess",
      "outputs": [],
      "stateMutability": "nonpayable",
      "type": "function"
    }
  ],
  "transactionHash": "0xb670810422cdf0063122857fc0cdd41e4b3fed893769f32807fc58e9eee2c37a",
  "args": [],
  "numDeployments": 1,
  "solcInputHash": "93ddee07a609c88d7293b54d8c3a99fa",
  "bytecode": "0x608060405234801561000f575f5ffd5b506100c461001b6100c9565b80517f9e7b61f58c47dc699ac88507c4f5bb9f121c03808c5676a8078fe583e464970080546001600160a01b03199081166001600160a01b039384161790915560208301517f9e7b61f58c47dc699ac88507c4f5bb9f121c03808c5676a8078fe583e46497018054831691841691909117905560408301517f9e7b61f58c47dc699ac88507c4f5bb9f121c03808c5676a8078fe583e46497028054909216921691909117905550565b610238565b604080516060810182525f808252602082018190529181019190915246600103610122575060408051606080820183525f8083526020808401829052928401819052835191820184528082529181018290529182015290565b4662aa36a7036101a1575060408051606080820183525f8083526020808401829052928401528251908101835273f0ffdc93b7e186bc2f8cb3daa75d86d1930a433d81527392c920834ec8941d2c77d188936e1f7a6f49c1279181019190915273be0e383937d564d7ff0bc3b46c51f0bf8d5c311a9181019190915290565b46617a690361021f575060408051606080820183525f8083526020808401829052928401528251908101835273f0ffdc93b7e186bc2f8cb3daa75d86d1930a433d81527392c920834ec8941d2c77d188936e1f7a6f49c1279181019190915273be0e383937d564d7ff0bc3b46c51f0bf8d5c311a9181019190915290565b6040516373cac13b60e01b815260040160405180910390fd5b611e2d806102455f395ff3fe608060405234801561000f575f5ffd5b50600436106100fb575f3560e01c80636386c1c7116100935780639f00c59e116100635780639f00c59e1461026f578063ac35df2b146102a2578063deaf0a55146102b5578063eeefa5de146102c8575f5ffd5b80636386c1c7146101eb57806385e685311461022c5780638927b0301461023f578063966e5e3c14610247575f5ffd5b80631cd87408116100ce5780631cd874081461018a5780634c9c0c4c1461019d57806358214308146101b05780635bc5a324146101d8575f5ffd5b806303536d43146100ff5780630593873f146101415780630ae5e7391461016257806318e7611714610177575b5f5ffd5b61012c61010d366004611b76565b600160209081525f928352604080842090915290825290205460ff1681565b60405190151581526020015b60405180910390f35b61015461014f366004611ba7565b6102db565b604051908152602001610138565b610175610170366004611bd7565b6104b8565b005b610154610185366004611ba7565b6105f0565b610175610198366004611c35565b610884565b61012c6101ab366004611b76565b61097d565b6101546101be366004611bd7565b6001600160a01b03165f9081526020819052604090205490565b6101546101e6366004611c7d565b6109ac565b6102176101f9366004611bd7565b6001600160a01b03165f908152602081905260409020549081151590565b60408051928352901515602083015201610138565b61017561023a366004611bd7565b610a79565b610154610ace565b61025a610255366004611c7d565b610adc565b60408051928352602083019190915201610138565b61028261027d366004611ba7565b610b13565b604080519485526020850193909352918301526060820152608001610138565b6101546102b0366004611ba7565b610ed1565b6101546102c3366004611bd7565b6110c5565b6101546102d6366004611ca5565b611285565b5f6001600160a01b03841633148061031557506001600160a01b0384165f90815260016020908152604080832033845290915290205460ff165b6103845760405162461bcd60e51b815260206004820152603560248201527f53696c656e744f75723a204e6f7420617574686f72697a656420746f2076696560448201527477207468697320757365722773207265636f72647360581b60648201526084015b60405180910390fd5b6001600160a01b0384165f9081526020818152604080832080548251818502810185019093528083529192909190849084015b828210156103fa578382905f5260205f2090600202016040518060400160405290815f8201548152602001600182015481525050815260200190600101906103b7565b5050505090505f61040a5f6113a8565b90505f5b8251811015610497578583828151811061042a5761042a611d11565b6020026020010151602001511015801561046157508483828151811061045257610452611d11565b60200260200101516020015111155b1561048f5761048c8284838151811061047c5761047c611d11565b60200260200101515f01516113ba565b91505b60010161040e565b506104a1816113e8565b506104ac81336113f7565b509150505b9392505050565b6001600160a01b0381166105185760405162461bcd60e51b815260206004820152602160248201527f53696c656e744f75723a20496e76616c696420766965776572206164647265736044820152607360f81b606482015260840161037b565b336001600160a01b038216036105965760405162461bcd60e51b815260206004820152602a60248201527f53696c656e744f75723a2043616e6e6f74206772616e7420616363657373207460448201527f6f20796f757273656c6600000000000000000000000000000000000000000000606482015260840161037b565b335f8181526001602081815260408084206001600160a01b0387168086529252808420805460ff191690931790925590519092917f9f520b3bfc56d06f7065d10b4683b3f57ac8895d5026cd176dee95ce1454cb8d91a350565b5f6001600160a01b03841633148061062a57506001600160a01b0384165f90815260016020908152604080832033845290915290205460ff165b6106945760405162461bcd60e51b815260206004820152603560248201527f53696c656e744f75723a204e6f7420617574686f72697a656420746f2076696560448201527477207468697320757365722773207265636f72647360581b606482015260840161037b565b6001600160a01b0384165f9081526020818152604080832080548251818502810185019093528083529192909190849084015b8282101561070a578382905f5260205f2090600202016040518060400160405290815f8201548152602001600182015481525050815260200190600101906106c7565b50505050905080515f03610742575f6107225f6113a8565b905061072d816113e8565b5061073881336113f7565b5091506104b19050565b5f61074c5f6113a8565b90505f805b8351811015610832578684828151811061076d5761076d611d11565b602002602001015160200151101580156107a457508584828151811061079557610795611d11565b60200260200101516020015111155b1561082a57816107d6578381815181106107c0576107c0611d11565b60200260200101515f015192506001915061082a565b5f6107fd8583815181106107ec576107ec611d11565b60200260200101515f015185611409565b90506108268186848151811061081557610815611d11565b60200260200101515f015186611437565b9350505b600101610751565b5080610864575f6108425f6113a8565b905061084d816113e8565b5061085881336113f7565b5093506104b192505050565b61086d826113e8565b5061087882336113f7565b50909695505050505050565b5f6108c48484848080601f0160208091040260200160405190810160405280939291908181526020018383808284375f9201919091525061147e92505050565b604080518082018252828152426020808301918252335f9081528082529384208054600181810183559186529190942083516002909202019081559051920191909155909150610913826113e8565b5061091e82336113f7565b50335f818152602081905260409020547fdb96106af1e8d7c555803e141858cfc860b5302bafb241cd5909fecb90f82c0c90429061095e90600190611d39565b6040805192835260208301919091520160405180910390a25050505050565b6001600160a01b038083165f9081526001602090815260408083209385168352929052205460ff165b92915050565b6001600160a01b0382165f908152602081905260408120548210610a385760405162461bcd60e51b815260206004820152602560248201527f53696c656e744f75723a205265636f726420696e646578206f7574206f66206260448201527f6f756e6473000000000000000000000000000000000000000000000000000000606482015260840161037b565b6001600160a01b0383165f908152602081905260409020805483908110610a6157610a61611d11565b905f5260205f20906002020160010154905092915050565b335f8181526001602090815260408083206001600160a01b0386168085529252808320805460ff19169055519092917f825c8be24eb0df19500f63e86c29e7d0d951e73056b889b891d85e40938d9b6e91a350565b5f610ad761148b565b905090565b5f602052815f5260405f208181548110610af4575f80fd5b5f91825260209091206002909102018054600190910154909250905082565b5f8080806001600160a01b038716331480610b5057506001600160a01b0387165f90815260016020908152604080832033845290915290205460ff165b610bba5760405162461bcd60e51b815260206004820152603560248201527f53696c656e744f75723a204e6f7420617574686f72697a656420746f2076696560448201527477207468697320757365722773207265636f72647360581b606482015260840161037b565b6001600160a01b0387165f9081526020818152604080832080548251818502810185019093528083529192909190849084015b82821015610c30578382905f5260205f2090600202016040518060400160405290815f820154815260200160018201548152505081526020019060010190610bed565b5050505090505f610c405f6113a8565b90505f80610c4d816113a8565b90505f5f90505f5f865111610c6a57610c655f6113a8565b610c88565b855f81518110610c7c57610c7c611d11565b60200260200101515f01515b90505f5b8651811015610dec578015610cef575f610cc2888381518110610cb157610cb1611d11565b60200260200101515f015184611409565b9050610ceb81898481518110610cda57610cda611d11565b60200260200101515f015185611437565b9250505b8c878281518110610d0257610d02611d11565b60200260200101516020015110158015610d3957508b878281518110610d2a57610d2a611d11565b60200260200101516020015111155b15610de457610d548688838151811061047c5761047c611d11565b955084610d6081611d4c565b95505082610d9057868181518110610d7a57610d7a611d11565b60200260200101515f0151935060019250610de4565b5f610db7888381518110610da657610da6611d11565b60200260200101515f015186611409565b9050610de081898481518110610dcf57610dcf611d11565b60200260200101515f015187611437565b9450505b600101610c8c565b50835f03610e22575f610dfe5f6113a8565b9050610e09816113e8565b50610e1481336113f7565b509950899850889750610e79565b610e2b856113e8565b50610e3685336113f7565b508499505f610e4586866114bf565b9050610e50816113e8565b50610e5b81336113f7565b50809950610e68846113e8565b50610e7384336113f7565b50839850505b85515f03610ea9575f610e8b5f6113a8565b9050610e96816113e8565b50610ea181336113f7565b509650610ec2565b610eb2816113e8565b50610ebd81336113f7565b508096505b50505050505093509350935093565b5f6001600160a01b038416331480610f0b57506001600160a01b0384165f90815260016020908152604080832033845290915290205460ff165b610f755760405162461bcd60e51b815260206004820152603560248201527f53696c656e744f75723a204e6f7420617574686f72697a656420746f2076696560448201527477207468697320757365722773207265636f72647360581b606482015260840161037b565b6001600160a01b0384165f9081526020818152604080832080548251818502810185019093528083529192909190849084015b82821015610feb578382905f5260205f2090600202016040518060400160405290815f820154815260200160018201548152505081526020019060010190610fa8565b5050505090505f610ffb5f6113a8565b90505f805b8351811015611086578684828151811061101c5761101c611d11565b6020026020010151602001511015801561105357508584828151811061104457611044611d11565b60200260200101516020015111155b1561107e5761106e8385838151811061047c5761047c611d11565b92508161107a81611d4c565b9250505b600101611000565b50805f03611098575f6108425f6113a8565b5f6110a383836114bf565b90506110ae816113e8565b506110b981336113f7565b50979650505050505050565b5f6001600160a01b0382163314806110ff57506001600160a01b0382165f90815260016020908152604080832033845290915290205460ff165b6111695760405162461bcd60e51b815260206004820152603560248201527f53696c656e744f75723a204e6f7420617574686f72697a656420746f2076696560448201527477207468697320757365722773207265636f72647360581b606482015260840161037b565b6001600160a01b0382165f9081526020818152604080832080548251818502810185019093528083529192909190849084015b828210156111df578382905f5260205f2090600202016040518060400160405290815f82015481526020016001820154815250508152602001906001019061119c565b50505050905080515f03611215575f6111f75f6113a8565b9050611202816113e8565b5061120d81336113f7565b509392505050565b5f815f8151811061122857611228611d11565b602090810291909101015151905060015b825181101561127b575f611258848381518110610cb157610cb1611d11565b905061127081858481518110610cda57610cda611d11565b925050600101611239565b50611202816113e8565b5f6001600160a01b0387163314806112bf57506001600160a01b0387165f90815260016020908152604080832033845290915290205460ff165b6113295760405162461bcd60e51b815260206004820152603560248201527f53696c656e744f75723a204e6f7420617574686f72697a656420746f2076696560448201527477207468697320757365722773207265636f72647360581b606482015260840161037b565b5f6113698585858080601f0160208091040260200160405190810160405280939291908181526020018383808284375f9201919091525061147e92505050565b90505f6113778989896114e1565b90505f61138482846115e1565b905061138f816113e8565b5061139a81336113f7565b509998505050505050505050565b5f6109a68263ffffffff16600461160f565b5f826113cc576113c95f6113a8565b92505b816113dd576113da5f6113a8565b91505b6104b183835f6116b1565b5f6113f38230611781565b5090565b5f6114028383611781565b5090919050565b5f8261141b576114185f6113a8565b92505b8161142c576114295f6113a8565b91505b6104b183835f6117f7565b5f83611449576114465f611881565b93505b8261145a576114575f6113a8565b92505b8161146b576114685f6113a8565b91505b61147684848461189c565b949350505050565b5f6104b183836004611950565b5f4660010361149a5750600190565b4662aa36a7036114ab575061271190565b46617a69036114ba57505f1990565b505f90565b5f826114d1576114ce5f6113a8565b92505b6104b18363ffffffff8416611a5d565b6001600160a01b0383165f9081526020818152604080832080548251818502810185019093528083528493849084015b82821015611554578382905f5260205f2090600202016040518060400160405290815f820154815260200160018201548152505081526020019060010190611511565b5050505090505f6115645f6113a8565b90505f5b82518110156104ac578583828151811061158457611584611d11565b602002602001015160200151101580156115bb5750848382815181106115ac576115ac611d11565b60200260200101516020015111155b156115d9576115d68284838151811061047c5761047c611d11565b91505b600101611568565b5f826115f3576115f05f6113a8565b92505b81611604576116015f6113a8565b91505b6104b183835f611ad1565b7f9e7b61f58c47dc699ac88507c4f5bb9f121c03808c5676a8078fe583e464970154604051639cd07acb60e01b81525f915f516020611e015f395f51905f52916001600160a01b0390911690639cd07acb906116719087908790600401611d84565b6020604051808303815f875af115801561168d573d5f5f3e3d5ffd5b505050506040513d601f19601f820116820180604052508101906114769190611d98565b5f5f82156116c45750600160f81b6116c7565b505f5b7f9e7b61f58c47dc699ac88507c4f5bb9f121c03808c5676a8078fe583e46497015460405163022f65e760e31b815260048101879052602481018690526001600160f81b0319831660448201525f516020611e015f395f51905f52916001600160a01b03169063117b2f38906064015b6020604051808303815f875af1158015611753573d5f5f3e3d5ffd5b505050506040513d601f19601f820116820180604052508101906117779190611d98565b9695505050505050565b5f5f516020611e015f395f51905f528054604051635ca4b5b160e11b8152600481018690526001600160a01b03858116602483015292935091169063b9496b62906044015f604051808303815f87803b1580156117dc575f5ffd5b505af11580156117ee573d5f5f3e3d5ffd5b50505050505050565b5f5f821561180a5750600160f81b61180d565b505f5b7f9e7b61f58c47dc699ac88507c4f5bb9f121c03808c5676a8078fe583e4649701546040516385362ee760e01b815260048101879052602481018690526001600160f81b0319831660448201525f516020611e015f395f51905f52916001600160a01b0316906385362ee790606401611737565b5f6109a682611890575f611893565b60015b60ff165f61160f565b7f9e7b61f58c47dc699ac88507c4f5bb9f121c03808c5676a8078fe583e464970154604051637702dcff60e01b81526004810185905260248101849052604481018390525f915f516020611e015f395f51905f52916001600160a01b0390911690637702dcff906064015b6020604051808303815f875af1158015611923573d5f5f3e3d5ffd5b505050506040513d601f19601f820116820180604052508101906119479190611d98565b95945050505050565b7f9e7b61f58c47dc699ac88507c4f5bb9f121c03808c5676a8078fe583e46497015460405163045fc19560e11b81525f915f516020611e015f395f51905f52916001600160a01b03909116906308bf832a906119b6908890339089908990600401611daf565b6020604051808303815f875af11580156119d2573d5f5f3e3d5ffd5b505050506040513d601f19601f820116820180604052508101906119f69190611d98565b8154604051630f8e573b60e21b8152600481018390523360248201529193506001600160a01b031690633e395cec906044015f604051808303815f87803b158015611a3f575f5ffd5b505af1158015611a51573d5f5f3e3d5ffd5b50505050509392505050565b7f9e7b61f58c47dc699ac88507c4f5bb9f121c03808c5676a8078fe583e464970154604051635a53accb60e01b81526004810184905260248101839052600160f81b604482018190525f9290915f516020611e015f395f51905f52916001600160a01b031690635a53accb90606401611907565b5f5f8215611ae45750600160f81b611ae7565b505f5b7f9e7b61f58c47dc699ac88507c4f5bb9f121c03808c5676a8078fe583e464970154604051631391547f60e01b815260048101879052602481018690526001600160f81b0319831660448201525f516020611e015f395f51905f52916001600160a01b031690631391547f90606401611737565b80356001600160a01b0381168114611b71575f5ffd5b919050565b5f5f60408385031215611b87575f5ffd5b611b9083611b5b565b9150611b9e60208401611b5b565b90509250929050565b5f5f5f60608486031215611bb9575f5ffd5b611bc284611b5b565b95602085013595506040909401359392505050565b5f60208284031215611be7575f5ffd5b6104b182611b5b565b5f5f83601f840112611c00575f5ffd5b50813567ffffffffffffffff811115611c17575f5ffd5b602083019150836020828501011115611c2e575f5ffd5b9250929050565b5f5f5f60408486031215611c47575f5ffd5b83359250602084013567ffffffffffffffff811115611c64575f5ffd5b611c7086828701611bf0565b9497909650939450505050565b5f5f60408385031215611c8e575f5ffd5b611c9783611b5b565b946020939093013593505050565b5f5f5f5f5f5f60a08789031215611cba575f5ffd5b611cc387611b5b565b9550602087013594506040870135935060608701359250608087013567ffffffffffffffff811115611cf3575f5ffd5b611cff89828a01611bf0565b979a9699509497509295939492505050565b634e487b7160e01b5f52603260045260245ffd5b634e487b7160e01b5f52601160045260245ffd5b818103818111156109a6576109a6611d25565b5f60018201611d5d57611d5d611d25565b5060010190565b60548110611d8057634e487b7160e01b5f52602160045260245ffd5b9052565b828152604081016104b16020830184611d64565b5f60208284031215611da8575f5ffd5b5051919050565b8481526001600160a01b0384166020820152608060408201525f8351806080840152806020860160a085015e5f60a0828501015260a0601f19601f8301168401019150506119476060830184611d6456fe9e7b61f58c47dc699ac88507c4f5bb9f121c03808c5676a8078fe583e4649700a164736f6c634300081b000a",
  "devdoc": {
    "details": "All offline time records are stored encrypted on-chain, enabling computation without revealing plaintext",
    "kind": "dev",
    "methods": {
      "addOfflineRecord(bytes32,bytes)": {
        "details": "The encrypted value is added to the user's record array      ACL permissions are set to allow the contract and user to decrypt",
        "params": {
          "encryptedMinutes": "The encrypted offline minutes (euint32)",
          "inputProof": "The zero-knowledge proof for the encrypted input"
        }
      },
      "checkAccessPermission(address,address)": {
        "params": {
          "user": "The address of the user whose records are being checked",
          "viewer": "The address of the viewer to check permission for"
        },
        "returns": {
          "_0": "True if the viewer has permission to view the user's records, false otherwise"
        }
      },
      "compareEncryptedTotal(address,uint256,uint256,bytes32,bytes)": {
        "details": "Only the user or authorized viewers can decrypt the result",
        "params": {
          "endTime": "End timestamp of the period (inclusive)",
          "startTime": "Start timestamp of the period (inclusive)",
          "targetMinutes": "The encrypted target minutes to compare against",
          "targetProof": "The zero-knowledge proof for the target",
          "user": "The address of the user"
        },
        "returns": {
          "_0": "An encrypted boolean indicating if the total meets or exceeds the target"
        }
      },
      "getEncryptedAverage(address,uint256,uint256)": {
        "details": "Only the user or authorized viewers can decrypt the result",
        "params": {
          "endTime": "End timestamp of the period (inclusive)",
          "startTime": "Start timestamp of the period (inclusive)",
          "user": "The address of the user"
        },
        "returns": {
          "_0": "The encrypted average of offline minutes in the period"
        }
      },
      "getEncryptedBestRecord(address)": {
        "details": "Only the user or authorized viewers can decrypt the result",
        "params": {
          "user": "The address of the user"
        },
        "returns": {
          "_0": "The encrypted maximum offline minutes across all records"
        }
      },
      "getEncryptedMax(address,uint256,uint256)": {
        "details": "Only the user or authorized viewers can decrypt the result",
        "params": {
          "endTime": "End timestamp of the period (inclusive)",
          "startTime": "Start timestamp of the period (inclusive)",
          "user": "The address of the user"
        },
        "returns": {
          "_0": "The encrypted maximum offline minutes in the period"
        }
      },
      "getEncryptedStats(address,uint256,uint256)": {
        "details": "Only the user or authorized viewers can decrypt the results      This function combines getEncryptedTotal, getEncryptedAverage, getEncryptedMax, and getEncryptedBestRecord      into a single transaction to reduce gas costs and improve efficiency",
        "params": {
          "endTime": "End timestamp of the period (inclusive)",
          "startTime": "Start timestamp of the period (inclusive)",
          "user": "The address of the user"
        },
        "returns": {
          "average": "The encrypted average of offline minutes in the period",
          "bestRecord": "The encrypted maximum offline minutes across all records",
          "max": "The encrypted maximum offline minutes in the period",
          "total": "The encrypted sum of offline minutes in the period"
        }
      },
      "getEncryptedTotal(address,uint256,uint256)": {
        "details": "Only the user or authorized viewers can decrypt the result",
        "params": {
          "endTime": "End timestamp of the period (inclusive)",
          "startTime": "Start timestamp of the period (inclusive)",
          "user": "The address of the user"
        },
        "returns": {
          "_0": "The encrypted sum of offline minutes in the period"
        }
      },
      "getRecordCount(address)": {
        "params": {
          "user": "The address of the user"
        },
        "returns": {
          "_0": "The number of records"
        }
      },
      "getRecordTimestamp(address,uint256)": {
        "params": {
          "index": "The index of the record",
          "user": "The address of the user"
        },
        "returns": {
          "_0": "The timestamp of the record"
        }
      },
      "getUserInfo(address)": {
        "params": {
          "user": "The address of the user to query"
        },
        "returns": {
          "hasRecords": "True if the user has at least one record, false otherwise",
          "recordCount": "The number of records the user has"
        }
      },
      "grantAccess(address)": {
        "params": {
          "viewer": "The address to grant access to"
        }
      },
      "revokeAccess(address)": {
        "params": {
          "viewer": "The address to revoke access from"
        }
      }
    },
    "stateVariables": {
      "accessControl": {
        "details": "accessControl[user][viewer] = true means viewer can decrypt user's records"
      }
    },
    "title": "SilentOur - Encrypted Daily Offline Time Tracking System",
    "version": 1
  },
  "userdoc": {
    "errors": {
      "ZamaProtocolUnsupported()": [
        {
          "notice": "Returned if the Zama protocol is not supported on the current chain"
        }
      ]
    },
    "events": {
      "AccessGranted(address,address)": {
        "notice": "Event emitted when access is granted"
      },
      "AccessRevoked(address,address)": {
        "notice": "Event emitted when access is revoked"
      },
      "OfflineRecordAdded(address,uint256,uint256)": {
        "notice": "Event emitted when a new offline record is added"
      }
    },
    "kind": "user",
    "methods": {
      "accessControl(address,address)": {
        "notice": "Mapping from user address to authorized viewer addresses"
      },
      "addOfflineRecord(bytes32,bytes)": {
        "notice": "Add a new offline time record for the caller"
      },
      "checkAccessPermission(address,address)": {
        "notice": "Check if a viewer has permission to view a user's records"
      },
      "compareEncryptedTotal(address,uint256,uint256,bytes32,bytes)": {
        "notice": "Check if encrypted offline time meets or exceeds a target (encrypted comparison)"
      },
      "dailyOfflineRecords(address,uint256)": {
        "notice": "Mapping from user address to their array of offline records"
      },
      "getEncryptedAverage(address,uint256,uint256)": {
        "notice": "Get the average encrypted offline time for a user within a time period"
      },
      "getEncryptedBestRecord(address)": {
        "notice": "Get the best (maximum) encrypted offline time record for a user"
      },
      "getEncryptedMax(address,uint256,uint256)": {
        "notice": "Get the maximum encrypted offline time for a user within a time period"
      },
      "getEncryptedStats(address,uint256,uint256)": {
        "notice": "Get all encrypted statistics for a user in one transaction"
      },
      "getEncryptedTotal(address,uint256,uint256)": {
        "notice": "Get the total encrypted offline time for a user within a time period"
      },
      "getRecordCount(address)": {
        "notice": "Get the number of records for a user"
      },
      "getRecordTimestamp(address,uint256)": {
        "notice": "Get a specific record's timestamp (plaintext, for filtering)"
      },
      "getUserInfo(address)": {
        "notice": "Get information about a user"
      },
      "grantAccess(address)": {
        "notice": "Grant access to a viewer address to decrypt the caller's records"
      },
      "revokeAccess(address)": {
        "notice": "Revoke access from a viewer address"
      }
    },
    "notice": "A privacy-friendly DApp for tracking daily offline time using Fully Homomorphic Encryption",
    "version": 1
  },
  "storageLayout": {
    "storage": [
      {
        "astId": 39197,
        "contract": "contracts/SilentOur.sol:SilentOur",
        "label": "dailyOfflineRecords",
        "offset": 0,
        "slot": "0",
        "type": "t_mapping(t_address,t_array(t_struct(OfflineRecord)39190_storage)dyn_storage)"
      },
      {
        "astId": 39204,
        "contract": "contracts/SilentOur.sol:SilentOur",
        "label": "accessControl",
        "offset": 0,
        "slot": "1",
        "type": "t_mapping(t_address,t_mapping(t_address,t_bool))"
      }
    ],
    "types": {
      "t_address": {
        "encoding": "inplace",
        "label": "address",
        "numberOfBytes": "20"
      },
      "t_array(t_struct(OfflineRecord)39190_storage)dyn_storage": {
        "base": "t_struct(OfflineRecord)39190_storage",
        "encoding": "dynamic_array",
        "label": "struct SilentOur.OfflineRecord[]",
        "numberOfBytes": "32"
      },
      "t_bool": {
        "encoding": "inplace",
        "label": "bool",
        "numberOfBytes": "1"
      },
      "t_mapping(t_address,t_array(t_struct(OfflineRecord)39190_storage)dyn_storage)": {
        "encoding": "mapping",
        "key": "t_address",
        "label": "mapping(address => struct SilentOur.OfflineRecord[])",
        "numberOfBytes": "32",
        "value": "t_array(t_struct(OfflineRecord)39190_storage)dyn_storage"
      },
      "t_mapping(t_address,t_bool)": {
        "encoding": "mapping",
        "key": "t_address",
        "label": "mapping(address => bool)",
        "numberOfBytes": "32",
        "value": "t_bool"
      },
      "t_mapping(t_address,t_mapping(t_address,t_bool))": {
        "encoding": "mapping",
        "key": "t_address",
        "label": "mapping(address => mapping(address => bool))",
        "numberOfBytes": "32",
        "value": "t_mapping(t_address,t_bool)"
      },
      "t_struct(OfflineRecord)39190_storage": {
        "encoding": "inplace",
        "label": "struct SilentOur.OfflineRecord",
        "members": [
          {
            "astId": 39187,
            "contract": "contracts/SilentOur.sol:SilentOur",
            "label": "encryptedMinutes",
            "offset": 0,
            "slot": "0",
            "type": "t_userDefinedValueType(euint32)40521"
          },
          {
            "astId": 39189,
            "contract": "contracts/SilentOur.sol:SilentOur",
            "label": "timestamp",
            "offset": 0,
            "slot": "1",
            "type": "t_uint256"
          }
        ],
        "numberOfBytes": "64"
      },
      "t_uint256": {
        "encoding": "inplace",
        "label": "uint256",
        "numberOfBytes": "32"
      },
      "t_userDefinedValueType(euint32)40521": {
        "encoding": "inplace",
        "label": "euint32",
        "numberOfBytes": "32"
      }
    }
  }
}